{
  "transactions": [
    {
      "hash": "0x46340c7c2ae14f92954b8e4276de43e1a63a07d93385cf574274f27c4d36b998",
      "transactionType": "CALL",
      "contractName": null,
      "contractAddress": "0x779877a7b0d9e8603169ddbd7836e478b4624789",
      "function": "transferAndCall(address,uint256,bytes)",
      "arguments": [
        "0x9DdfaCa8183c41ad55329BdeeD9F6A8d53168B1B",
        "1000000000000000000",
        "0x10fa648e30ae998fe18fed4d25304b6421457a51debb003e08f1481974d576eb"
      ],
      "transaction": {
        "from": "0x89fe3aa7844d3954846003ab3284f3d3320f0a1e",
        "to": "0x779877a7b0d9e8603169ddbd7836e478b4624789",
        "gas": "0x1603d",
        "value": "0x0",
        "input": "0x4000aea00000000000000000000000009ddfaca8183c41ad55329bdeed9f6a8d53168b1b0000000000000000000000000000000000000000000000000de0b6b3a76400000000000000000000000000000000000000000000000000000000000000000060000000000000000000000000000000000000000000000000000000000000002010fa648e30ae998fe18fed4d25304b6421457a51debb003e08f1481974d576eb",
        "nonce": "0x5c",
        "chainId": "0xaa36a7"
      },
      "additionalContracts": [],
      "isFixedGasLimit": false
    }
  ],
  "receipts": [
    {
      "status": "0x1",
      "cumulativeGasUsed": "0xe68f53",
      "logs": [
        {
          "address": "0x779877a7b0d9e8603169ddbd7836e478b4624789",
          "topics": [
            "0xddf252ad1be2c89b69c2b068fc378daa952ba7f163c4a11628f55a4df523b3ef",
            "0x00000000000000000000000089fe3aa7844d3954846003ab3284f3d3320f0a1e",
            "0x0000000000000000000000009ddfaca8183c41ad55329bdeed9f6a8d53168b1b"
          ],
          "data": "0x0000000000000000000000000000000000000000000000000de0b6b3a7640000",
          "blockHash": "0x93b4cfd5b420e185b1640ca42957d8a7f22f5bc99d6812b1e1a57a1d4f2c2c29",
          "blockNumber": "0x8510a9",
          "blockTimestamp": "0x686d4e30",
          "transactionHash": "0x46340c7c2ae14f92954b8e4276de43e1a63a07d93385cf574274f27c4d36b998",
          "transactionIndex": "0xd3",
          "logIndex": "0x145",
          "removed": false
        },
        {
          "address": "0x779877a7b0d9e8603169ddbd7836e478b4624789",
          "topics": [
            "0xe19260aff97b920c7df27010903aeb9c8d2be5d310a2c67824cf3f15396e4c16",
            "0x00000000000000000000000089fe3aa7844d3954846003ab3284f3d3320f0a1e",
            "0x0000000000000000000000009ddfaca8183c41ad55329bdeed9f6a8d53168b1b"
          ],
          "data": "0x0000000000000000000000000000000000000000000000000de0b6b3a76400000000000000000000000000000000000000000000000000000000000000000040000000000000000000000000000000000000000000000000000000000000002010fa648e30ae998fe18fed4d25304b6421457a51debb003e08f1481974d576eb",
          "blockHash": "0x93b4cfd5b420e185b1640ca42957d8a7f22f5bc99d6812b1e1a57a1d4f2c2c29",
          "blockNumber": "0x8510a9",
          "blockTimestamp": "0x686d4e30",
          "transactionHash": "0x46340c7c2ae14f92954b8e4276de43e1a63a07d93385cf574274f27c4d36b998",
          "transactionIndex": "0xd3",
          "logIndex": "0x146",
          "removed": false
        },
        {
          "address": "0x9ddfaca8183c41ad55329bdeed9f6a8d53168b1b",
          "topics": [
            "0x1ced9348ff549fceab2ac57cd3a9de38edaaab274b725ee82c23e8fc8c4eec7a",
            "0x10fa648e30ae998fe18fed4d25304b6421457a51debb003e08f1481974d576eb"
          ],
          "data": "0x000000000000000000000000000000000000000000000000d02ab486cedc0000000000000000000000000000000000000000000000000000de0b6b3a76400000",
          "blockHash": "0x93b4cfd5b420e185b1640ca42957d8a7f22f5bc99d6812b1e1a57a1d4f2c2c29",
          "blockNumber": "0x8510a9",
          "blockTimestamp": "0x686d4e30",
          "transactionHash": "0x46340c7c2ae14f92954b8e4276de43e1a63a07d93385cf574274f27c4d36b998",
          "transactionIndex": "0xd3",
          "logIndex": "0x147",
          "removed": false
        }
      ],
      "logsBloom": "0x00000004000000000000000000000000000000000020400000000000020000000000000000000000000000000000000000000000000000000000000000000000000000000000000000000008000000000000000000000000000020000020000008001000000000000000000000000000000000040000000000000010000040000000000000000000000000010000800004000020000000000000000000000000000000000000000000000000010000000000000000000000000004000000004000000002000000000000000000000000000002000000000100000000000000000010000000000000800000000000000000000000000000000000000000000000",
      "type": "0x2",
      "transactionHash": "0x46340c7c2ae14f92954b8e4276de43e1a63a07d93385cf574274f27c4d36b998",
      "transactionIndex": "0xd3",
      "blockHash": "0x93b4cfd5b420e185b1640ca42957d8a7f22f5bc99d6812b1e1a57a1d4f2c2c29",
      "blockNumber": "0x8510a9",
      "gasUsed": "0xf0d9",
      "effectiveGasPrice": "0x98129c0f",
      "from": "0x89fe3aa7844d3954846003ab3284f3d3320f0a1e",
      "to": "0x779877a7b0d9e8603169ddbd7836e478b4624789",
      "contractAddress": null
    }
  ],
  "libraries": [],
  "pending": [],
  "returns": {},
  "timestamp": 1751993905,
  "chain": 11155111,
  "commit": "3b9dc4e"
}